:020000040800F2
:1000000028D8192065030008418D0008497D0008A3
:100010003D8D000869090008E5A500087703000880
:10002000000000000000000000000000C195000872
:10003000B50C000800000000F190000805960008CB
:100040008103000881030008810300088103000880
:100050008103000881030008810300088103000870
:100060008103000881030008810300088103000860
:100070008103000881030008810300088103000850
:10008000810300088103000881030008C50C0008F3
:100090008103000881030008810300088103000830
:1000A000B90C0008810300088103000881030008DF
:1000B000000000008103000881030008810300089C
:1000C0008103000881030008810300088103000800
:1000D00081030008810300088103000881030008F0
:1000E00081030008810300088103000881030008E0
:1000F00081030008810300088103000881030008D0
:10010000810300084197000881030008810300086B
:1001100081030008810300088103000881030008AF
:10012000810300088103000881030008810300089F
:10013000810300088103000881030008810300088F
:10014000810300088103000881030008810300087F
:10015000810300088103000881030008810300086F
:10016000810300088103000881030008810300085F
:10017000810300088103000881030008810300084F
:10018000810300088103000881030008810300083F
:10019000810300088103000881030008810300082F
:1001A000810300088103000881030008810300081F
:1001B000810300080000000081030008810300089B
:1001C000810300080000000081030008810300088B
:1001D00081030008810300088103000881030008EF
:1001E00081030008810300088103000881030008DF
:1001F00000000000000000008103000881030008E7
:1002000081030008810300088103000881030008BE
:100210008103000881030008410A000881030008E7
:10022000810300088103000881030008810300089E
:10023000810300088103000881030008810300088E
:10024000810300088103000881030008810300087E
:10025000F10C0008E10C000881030008D97D0008BA
:10026000C97D0008810300088103000800F002F83E
:1002700000F069F80AA090E8000C82448344AAF1D7
:100280000107DA4501D100F05EF8AFF2090EBAE8D5
:100290000F0013F0010F18BFFB1A43F001031847BA
:1002A000D8B60200F8B602000A444FF0000C10F86D
:1002B000013B13F0070408BF10F8014B1D1108BFE4
:1002C00010F8015B641E05D010F8016B641E01F884
:1002D000016BF9D113F0080F1EBF10F8014BAD1CD4
:1002E0000C1B09D16D1E58BF01F801CBFAD505E0F2
:1002F00014F8016B01F8016B6D1EF9D59142D6D34C
:10030000704700000023002400250026103A28BF73
:1003100078C1FBD8520728BF30C148BF0B60704777
:100320001FB528F072FA9DE8030000F00DFAAFF354
:100330000080AFF3008000F051F91FBD10B5002020
:1003400000F038FA10BD00F061FA1146FFF7E8FF3F
:1003500022F0C2FA00F099FA03B4FFF7EFFF03BCF2
:1003600022F0FAF90A4880470A480047FEE7FEE70C
:10037000FEE7FEE7FEE7FEE7FEE7FEE7FEE7FEE755
:10038000FEE7000004480549054A064B7047000097
:10039000B19600086D02000828C2192028D819203B
:1003A00028C8192028C8192070470B46014618464E
:1003B00000F088B90EB5054614460E4613A000F0AD
:1003C00098F9284600F095F916A000F092F9304609
:1003D00000F08FF915A000F08CF900218DF80B10BA
:1003E0000A210DF10A008DF80A1008E094FBF1F2E1
:1003F00001FB124294FBF1F4303200F8012D002C85
:10040000F4DC00F076F900F052F900002A2A2A20E4
:10041000617373657274696F6E206661696C65647F
:100420003A2000002C2066696C6520002C206C6945
:100430006E652000032A40F2308010F0030C00F0BB
:10044000158011F8013BBCF1020F624498BF11F80E
:1004500001CB00F8013B38BF11F8013BA2F10402C7
:1004600098BF00F801CB38BF00F8013B11F003033F
:1004700000F02580083AC0F0088051F8043B083AA3
:1004800051F804CBA0E80810F5E7121D5CBF51F845
:10049000043B40F8043BAFF30080D20724BF11F8BF
:1004A000013B11F801CB48BF11F8012B24BF00F824
:1004B000013B00F801CB48BF00F8012B704710B595
:1004C000203AC0F00B80B1E81850A0E81850B1E80D
:1004D0001850A0E81850203ABFF4F5AF5FEA027C4C
:1004E00024BFB1E81850A0E8185044BF18C918C07C
:1004F000BDE810405FEA827C24BF51F8043B40F81D
:10050000043B08BF7047D20728BF31F8023B48BF01
:1005100011F8012B28BF20F8023B48BF00F8012B3F
:10052000704702F0FF0343EA032242EA024200F06E
:100530000AB802F0FF0343EA032242EA024200F053
:1005400024B84FF000020429C0F0128010F0030C10
:1005500000F01B80CCF1040CBCF1020F18BF00F8B6
:10056000012BA8BF20F8022BA1EB0C0100F00DB865
:100570005FEAC17C24BF00F8012B00F8012B48BFC3
:1005800000F8012B70474FF0000200B51346944667
:100590009646203922BFA0E80C50A0E80C50B1F1DB
:1005A0002001BFF4F7AF090728BFA0E80C5048BFEF
:1005B0000CC05DF804EB890028BF40F8042B08BF8D
:1005C000704748BF20F8022B11F0804F18BF00F889
:1005D000012B7047704770477047000070B5064C9C
:1005E0007C44064D7D4404E0204601680844804771
:1005F000241DAC42F8D170BDB4B30200BCB30200FC
:10060000704770B5064600F07FF8056806F10B00EC
:1006100020F00704B4429CBF002070BD2B466A68DE
:10062000BAB11068A04210D304F1080188423CBF5F
:100630005068586007D35168101941601168091B50
:10064000016058601460101D70BD13465268002A86
:10065000E7D12146284600F063F80028DED170BDBE
:1006600070B50446051F00F04FF80068002C14BF59
:10067000446870BD002C18BFAC423CBF2046646883
:10068000F8D301680A18AA4218BF456003D12A6846
:1006900005461144016028684119A1421CBF6C60E5
:1006A00070BD6168696021680844286070BD10B53C
:1006B000002000F0A0F8FFF741FEBDE81040012047
:1006C00022F04AB82DE9F041074615460E461020A3
:1006D000FFF797FF04000AD06760C4E9026500F0E5
:1006E00017F80168216004600020BDE8F081012056
:1006F000FBE710B5044602E0641C22F031F82078D4
:100700000028F9D110BD000000487047401815209E
:100710000048704770181520704770477047704741
:1007200038B504460A4600206946AFF30080002829
:1007300008BF38BD02460099204600F08CF8012021
:1007400038BD012000F0C8B8F8B5AFF30080054609
:1007500000200C46102000BF0646A819A0420DD963
:10076000324669460020AFF30080070008BF00F062
:10077000B3F80098A04218BF0546C419FFF7C4FF9C
:1007800005600746F01D20F007004619284600F0D6
:100790000AF8B44208BFF8BDA21B31463868BDE86C
:1007A000F84000F058B800210160C0E9011070471E
:1007B000102070472DE9F0410646FFF7A9FF80465B
:1007C000454613E016B1E068B0420ED120682860BB
:1007D000D4E90101D8F8007088472046FFF740FFB0
:1007E000D8F80000B842EBD100E025462C68002C78
:1007F000E8D1BDE8F08110B500F056F8BDE8104032
:1008000000F04CB800487047381815207546FFF7BF
:10081000F9FFAE4605006946534620F007008546BD
:1008200018B020B5FFF7AEFDBDE820404FF0000640
:100830004FF000074FF000084FF0000BAC46ACE85B
:10084000C009ACE8C009ACE8C009ACE8C00921F0B7
:1008500007018D467047034640688C46002818BF44
:1008600088423CBF03464068F8D318681844884261
:1008700007D00CF1030020F00700001D411A521AA6
:100880000146081D0A60FFF7EBBE10B50446AFF342
:1008900000802046BDE81040FFF75EBD002801D073
:1008A00021F05ABF7047000010B5002102A000F0EF
:1008B0001AF8012010BD0000534947414252543AF2
:1008C0002041626E6F726D616C207465726D696E2D
:1008D0006174696F6E00000010B500F01DF8BDE88E
:1008E0001040FFF7DBBF70B505460C460A2000E05C
:1008F0006D1C21F035FF35B128780028F8D102E0D1
:10090000641C21F02DFF14B120780028F8D1BDE837
:1009100070400A2021F024BF10B5012805D0002125
:1009200003A0FFF7E0FF012010BD09A1F8E70000D8
:1009300053494752544D454D3A204F7574206F66C8
:100940002068656170206D656D6F72790000000030
:100950003A2048656170206D656D6F727920636F14
:100960007272757074656400FFE7FEE780B542F24D
:100970000003CEF200031A684EF6005C22F001027A
:10098000CEF2000C1A60DCF800204FF6F07E02EA8E
:100990000E024CF240239A4207D0DCF800204CF2C1
:1009A000702302EA0E029A4205D142F20002CEF210
:1009B0000402126882B143F20802C4F20202012367
:1009C000136000BF136893B3136883B3136873B3E2
:1009D0001368002BF6D12AE041F2000CC5F6004C5A
:1009E000DCF800306FF31F33B3F58A6F0FD0DCF8FB
:1009F000003040F283426FF31F33934207D0DCF89C
:100A0000002040F285436FF31F329A42D3D144F65F
:100A10000842C5F602020123136000BF136833B118
:100A2000136823B1136813B11368002BF6D142F891
:100A3000080C52F8080C401AB0FA80F0400980BD4A
:100A400080B542F60C60C2F2150000F089FB80BD53
:100A500081B0009000980168D1F8040C20F0F800F3
:100A6000C1F8040C009801680269D1F8040C40EA4E
:100A7000C200C1F8040C009801680E20C1F8340CC3
:100A800000990A68D2F8701C21F01F01C2F8701C8E
:100A900000990A680969C2F8701C00990968C1F8D0
:100AA000A00C00990A68D2F8081D21F01F01C2F8B5
:100AB000081D00990A680969C2F8081D00990968AB
:100AC000C1F8380D00980168D1F85C0C20F0F000F6
:100AD000C1F85C0C00980168D1F8F40C20F0F0002B
:100AE000C1F8F40C0098006901280AD0FFE70098CB
:100AF0000069022805D0FFE70098006905280AD19F
:100B0000FFE7009801680020C1F85C0C00990968B3
:100B1000C1F8F40C33E00098006978B1FFE7009861
:100B2000006903280AD0FFE700980069042805D06F
:100B3000FFE70098006906280AD1FFE700980168DE
:100B40001020C1F85C0C00990968C1F8F40C15E09C
:100B500000980069072805D0FFE700980069082879
:100B60000AD1FFE7009801682020C1F85C0C0099C9
:100B70000968C1F8F40C00E0FFE7FFE7FFE7009821
:100B80000168D1F8600C20F00F00C1F8600C0098EB
:100B90000168D1F8F80C20F00F00C1F8F80C0098AB
:100BA00001684069C1F8600C009801684069C1F8AB
:100BB000F80C01B07047000084B0DDF810C003905D
:100BC0000291019200930198029940EA81100099E4
:100BD00040EA0120049940EA01400399C86604B044
:100BE0007047000082B00190009101980168D1F82F
:100BF000300420F00050C1F830040098C268019819
:100C00000168D1F8300440EA4270C1F8300401981C
:100C10000168D1F8340420F47F40C1F8340400980E
:100C2000426901980168D1F8340440EA0230C1F801
:100C300034040098026901980168D1F8340440EA4C
:100C40000220C1F8340402B07047000080B586B0BD
:100C5000DDF820C0049003910292019302F0A6F8FF
:100C60000090FFE704980068406FC00760B9FFE795
:100C700002F09CF80099401A652804D3FFE703208E
:100C80008DF8170011E0EDE70298039940EA811012
:100C9000019940EA0120089940EA01400499096855
:100CA000C86600208DF81700FFE79DF8170006B012
:100CB00080BD00007047000080B54FF4005001F087
:100CC000E1FC80BD80B54FF4807001F0DBFC80BD9D
:100CD00081B0EFF3108072B60090FFE7FEE70000EE
:100CE00080B542F69060C2F2150001F09DFF80BD14
:100CF00080B542F69060C2F2150001F0A1FF80BD00
:100D000087B006900591049200208DF80F001F20F7
:100D100002909DF81400C00720B9FFE701208DF86C
:100D20000F004BE0FFE70299481E0290002001905F
:100D300051B1FFE70598029901F01F0120FA01F176
:100D4000012088430190FFE70198C00708B1FFE741
:100D5000E9E70498009018282BD80099DFE801F003
:100D600028292929292929291F29292929292929FE
:100D700016292929292929290D000298072804D391
:100D8000FFE701208DF80F00FFE716E00298082822
:100D900004D3FFE701208DF80F00FFE70DE0029874
:100DA000102804D3FFE701208DF80F00FFE704E0CF
:100DB00003E001208DF80F00FFE7FFE79DF80F002B
:100DC00078B9FFE7059806990968486106980068B0
:100DD000806820F018000499084306990968886023
:100DE000FFE79DF80F0007B07047000080B582B0A4
:100DF0000090009820B9FFE701208DF8070057E028
:100E00000098407F38B9FFE70099002008770098E4
:100E100000F052F8FFE70099022048770098007927
:100E200080B9FFE70098016841F6B750C0F2C140B1
:100E3000486100980068806820F0180000990968EF
:100E400088600BE000988168C268FFF759FF20B105
:100E5000FFE701208DF807002AE0FFE700984079BE
:100E600030B9FFE7009801684FF0FF30086104E0F7
:100E70000098016800690861FFE7009800688068D1
:100E800020F06000009A1168526910438860009851
:100E90000068806820F08000009A11689269104311
:100EA000886000990120487700208DF80700FFE74F
:100EB0009DF8070002B080BD82B0019001980068E3
:100EC00043F20001C4F20201884210D1FFE7FFE7BC
:100ED00040F68840C4F20260016841F4805101602C
:100EE000006800F4805000900098FFE7FFE702B030
:100EF0007047000081B0009001B0704781B0009051
:100F000001B0704783B0019000208DF80300019874
:100F100020B9FFE701208DF80B0019E00198006867
:100F2000406810F0090F04D0FFE702208DF803009D
:100F300009E001990020886201980168086840F082
:100F400001000860FFE79DF803008DF80B00FFE744
:100F50009DF80B0003B0704781B0009001B070475E
:100F600080B584B00290029820B9FFE701208DF887
:100F70000F004CE0029890F8240068BBFFE702994C
:100F800040F65970C0F600008860029940F6FD6096
:100F9000C0F60000C860029941F2D900C0F6000016
:100FA0000861029941F2E100C0F60000486102992F
:100FB00040F6F560C0F6000088610298C06938B953
:100FC000FFE7029941F2E900C0F60000C861FFE7BF
:100FD0000298C1698847FFE7029900208862029958
:100FE000012081F8240002980068006820F0004089
:100FF000029A11685268104308600298FFF782FF56
:101000008DF807009DF807008DF80F00FFE79DF8A9
:101010000F0004B080BD000080B584B002900020B5
:101020008DF80700029820B9FFE701208DF80F0026
:101030004DE002980068406810F0090F04D0FFE707
:1010400002208DF807003DE0029900208862029995
:10105000012081F82400029801681220C8600298DB
:101060000068006820F4E06002990968086002984E
:101070000168086840F00200086001F097FE0090E7
:10108000FFE7029800684068C007D0B1FFE701F0B1
:101090008DFE0099401AC92812D3FFE70298006814
:1010A0004068C00758B1FFE7029910208862029992
:1010B000062081F8240001208DF8070001E0FFE7F9
:1010C000DFE7FFE79DF807008DF80F00FFE79DF8C9
:1010D0000F0004B080BD000081B0009001B07047E7
:1010E00081B0009001B0704783B002900298006810
:1010F00041F20041C4F20301884210D1FFE7FFE74B
:1011000040F68840C4F20260016841F0804101600D
:10111000006800F0804001900198FFE719E0029814
:10112000006841F60001C4F20301884210D1FFE7D4
:10113000FFE740F68840C4F20260016841F4001104
:101140000160006800F4001000900098FFE7FFE7DE
:10115000FFE703B07047000081B0009001B0704716
:1011600080B584B0039003980068406802900398AB
:101170000068006801909DF80800C00740B3FFE7D1
:101180009DF80500C00710B3FFE7039801680868E1
:1011900020F4807008600399C86D40F00100C865B4
:1011A00003980168012088600399042081F85900A0
:1011B000FFE70399002081F85800FFE70398406A91
:1011C00020B1FFE70398416A8847FFE7FFE7FFE7A1
:1011D0009DF808008006002829D5FFE79DF8050046
:1011E0008006002822D5FFE703980168086820F4EC
:1011F0000050086003980168202088600399C86D3A
:1012000040F00200C8650399042081F85900FFE707
:101210000399002081F85800FFE70398406A20B145
:10122000FFE70398416A8847FFE7FFE7FFE79DF87C
:1012300008000007002829D5FFE79DF805000007F2
:10124000002822D5FFE703980168086820F40060B1
:10125000086003980168082088600399C86D40F011
:101260000400C8650399042081F85900FFE7039939
:10127000002081F85800FFE70398406A20B1FFE79B
:101280000398416A8847FFE7FFE7FFE79DF80800FA
:101290004007002815D5FFE79DF805004007002806
:1012A0000ED5FFE703980168086820F480600860A5
:1012B0000398016804208860039800F0B7F8FFE7FE
:1012C000FFE79DF808008007002827D5FFE79DF875
:1012D00005008007002820D5FFE70398016808680B
:1012E00020F4007008600398016802208860039968
:1012F000C86DC8650399012081F85900FFE703997B
:10130000002081F85800FFE70398006A20B1FFE74A
:101310000398016A8847FFE7FFE7FFE79DF80800A9
:10132000C006002822D5FFE79DF80500C00600286A
:101330001BD5FFE703980168086820F48050086017
:1013400003980168102088600399C86DC8650399E7
:10135000012081F85900FFE70399002081F8580027
:10136000FFE70398FFF7F8FEFFE7FFE704B080BD53
:1013700080B582B00090009820B9FFE701208DF879
:1013800007004FE0009890F8590040B9FFE7009936
:10139000002081F85800009800F04CF8FFE7009911
:1013A000022081F859000098006800684FF6BF716C
:1013B000CFF6F8710840009B19685A68DB691A4338
:1013C0001043086000980068406B40F207118843A2
:1013D000009B19689A689B691A43104348630098F8
:1013E0000068006C4FF6FF718843009A1168D2685C
:1013F0001043086400980068406B20F44010009B84
:1014000019681A695B69120542EA4352104348633E
:1014100000990020C865009A012182F859108DF8C2
:101420000700FFE79DF8070002B080BD81B0009083
:1014300001B0704780B584B00390039800684BF208
:101440000001C4F20201884219D1FFE7FFE740F62C
:101450008840C4F20260016841F4802101600068A4
:1014600000F4802002900298FFE776200190052189
:10147000002202F0B7F9019802F0AAF9FFE704B0E0
:1014800080BD000083B001900091FFE70198007ECD
:10149000012804D1FFE702208DF80B00BDE001997F
:1014A00001200876FFE7FFE7019801680020C1F8F6
:1014B000C40001990968C1F8C80000980199086240
:1014C0009DF80000C00750B1FFE701980168D1F80E
:1014D000C4004FF6FF721043C1F8C400FFE79DF847
:1014E00000008007002809D5FFE701980168D1F8BE
:1014F000C40040F4F810C1F8C400FFE79DF80000F4
:101500004007002809D5FFE701980168D1F8C80015
:1015100040F00100C1F8C800FFE79DF80000000797
:10152000002809D5FFE701980168D1F8C80040F00C
:101530000200C1F8C800FFE79DF80000C0060028BF
:1015400009D5FFE701980168D1F8C80040F00C0008
:10155000C1F8C800FFE79DF800008006002809D503
:10156000FFE701980168D1F8C80040F01000C1F809
:10157000C800FFE79DF800004006002809D5FFE7F6
:1015800001980168D1F8C80040F02000C1F8C800F7
:10159000FFE79DF800000006002809D5FFE7019845
:1015A0000168D1F8C80040F04000C1F8C800FFE76A
:1015B0009DF80100C00748B1FFE701980168D1F824
:1015C000C80040F08000C1F8C800FFE79DF80100A6
:1015D0008007002809D5FFE701980168D1F8C80005
:1015E00040F4F850C1F8C800FFE79DF8010040073B
:1015F000002809D5FFE701980168D1F8C80040F438
:101600000020C1F8C800FFE7FFE701990020087635
:10161000FFE700208DF80B00FFE79DF80B0003B0FB
:101620007047000083B001900091FFE70198007EB1
:10163000012804D1FFE702208DF80B0019E0019981
:1016400001200876FFE7FFE701980168C86A20F0EB
:101650003F00C862009A01980168C86A1043C862D6
:10166000FFE7019900200876FFE700208DF80B00C6
:10167000FFE79DF80B0003B07047000083B00190B6
:101680000091FFE70198007E012804D1FFE70220C6
:101690008DF80B0098E0019901200876FFE7FFE73D
:1016A00001980168886820F47F408860009802688B
:1016B00001980168886840EA022088600198016802
:1016C000886F80B288670098426801980168886FC7
:1016D00040EA0240886701980168886F4FF6FF7200
:1016E000904388670098826801980168886F10436A
:1016F000886701980168C86F6FF30F00C86700988A
:10170000C26801980168C86F1043C86701980168F2
:10171000D1F880006FF30F00C1F8800000980269D3
:1017200001980168D1F880001043C1F88000019849
:101730000168D1F884006FF30F00C1F884000098AD
:10174000426901980168D1F884001043C1F884000F
:1017500001980168D1F8840020F08070C1F88400FD
:101760000098826901980168D1F884001043C1F89B
:10177000840001980168D1F888006FF30F00C1F868
:1017800088000098C26901980168D1F88800104368
:10179000C1F8880001980168D1F88C006FF30F0040
:1017A000C1F88C000098026A01980168D1F88C0099
:1017B0001043C1F88C00FFE7019900200876FFE78D
:1017C00000208DF80B00FFE79DF80B0003B0704779
:1017D00085B003900291FFE70398007E012804D1B1
:1017E000FFE702208DF813007CE0039901200876C2
:1017F000FFE7FFE702990868039A526910440860FE
:1018000002994868039A526902EB42021044486008
:101810000299C868039A526900EB4200C8600298B6
:1018200001684068884204D9FFE702984068009048
:1018300003E0029800680090FFE700980190039889
:101840000168D1F8980000F0FC20C1F898000198D8
:1018500040EA004203980168D1F898001043C1F8AB
:10186000980003980168D1F89C0000F0FC20C1F8B2
:101870009C0002988168C06840EA014203980168B0
:10188000D1F89C001043C1F89C0003980168D1F87E
:10189000F40047F6FF729043C1F8F4000298026921
:1018A00003980168D1F8F4001043C1F8F4000398DC
:1018B0000168D1F8A40020F47F40C1F8A400029888
:1018C000426903980168D1F8A40040EA0220C1F8F7
:1018D000A400FFE7039900200876FFE700208DF8B9
:1018E0001300FFE79DF8130005B0704783B0019027
:1018F0000091FFE70198007E012804D1FFE7022054
:101900008DF80B008AE1019901200876FFE7FFE7D7
:1019100000984068032801D1FFE7FFE701980168BC
:10192000486B20F00100486301980168D1F8000479
:1019300020F00100C1F8000401980168886B20F0D4
:10194000030088630098C26801980168886B10439F
:10195000886301980168C86B43F6FF729043C863BF
:101960000098026901980168C86B1043C863019828
:101970000168086C41F6FF72904308640098426960
:1019800001980168086C1043086401980168486C6C
:101990006FF30C0048640098826901980168486CF4
:1019A0001043486401980168C86820F00300C860CB
:1019B0000098026801980168C8681043C8600198DF
:1019C0000168486920F0070048610098C169026A0F
:1019D000406A104340EA01020198016848691043D7
:1019E000486101980168086920F00F0008610098BB
:1019F000426801980168086910430861019801680C
:101A0000D1F8000420F00E00C1F8000400984268EC
:101A100001980168D1F8000440EA4200C1F80004CE
:101A20000098406803280ED1FFE701980168086913
:101A300020F4807008610098826801980168086944
:101A400010430861FFE701980168886C40F6FF7257
:101A5000904388640098826A01980168886C1043FA
:101A6000886401980168C86C6FF30B00C864009823
:101A7000C26A01980168C86C1043C8640198016883
:101A8000086D47F6FF72904308650098026B019855
:101A90000168086D1043086501980168486D40F2BF
:101AA000FF32904348650098426B01980168486D89
:101AB0001043486501980168886D6FF309008865D7
:101AC0000098826B01980168886D104388650198C1
:101AD0000168C86D6FF30900C8650098C26B019872
:101AE0000168C86D1043C86501980168086E43F627
:101AF000FF72904308660098026C01980168086EB6
:101B00001043086601980168886B20F400408863E0
:101B10000098426C01980168886B104388630198B3
:101B20000168886920F47F0088610098826C0198C0
:101B30000168886940EA0240886101980168886903
:101B400020F0FF0088610098C26C019801688869E4
:101B50001043886101980168886B20F40050886305
:101B60000098026D01980168886B104388630198A2
:101B70000168886B20F4805088630098426D01985A
:101B80000168886B1043886301980168886B20F4B2
:101B9000006088630098826D01980168886B10432B
:101BA000886301980168886B20F4806088630098DE
:101BB000C26D01980168886B1043886301980168C1
:101BC000886B20F4007088630098026E01980168A9
:101BD000886B1043886301980168886B20F48070DB
:101BE00088630098426E01980168886B104388638F
:101BF00001980168886B20F4804088630098826EA9
:101C000001980168886B10438863FFE70199002001
:101C10000876FFE700208DF80B00FFE79DF80B002A
:101C200003B0704780B584B00290FFE70298007E51
:101C3000012804D1FFE702208DF80F0043E102994B
:101C400001200876FFE7FFE702980068D0F8A000BF
:101C500000F00600062809D0FFE7FFE70299002000
:101C60000876FFE701208DF80F002CE1029800684C
:101C7000D0F83004C00748B9FFE7FFE70299002019
:101C80000876FFE701208DF80F001CE1029800683C
:101C9000D0F8080800F04000402809D0FFE7FFE72F
:101CA000029900200876FFE701208DF80F000AE175
:101CB000FFE7FFE702980068D0F8A800000748B1E6
:101CC000FFE7FFE7029900200876FFE701208DF883
:101CD0000F00F8E002980068D0F8AC00000748B1A7
:101CE000FFE7FFE7029900200876FFE701208DF863
:101CF0000F00E8E0012000F09DFC01F057F8019092
:101D0000FFE702980068D0F80C04C005002811D441
:101D1000FFE701F04BF80199401A652809D3FFE766
:101D2000FFE7029900200876FFE703208DF80F00F7
:101D3000C9E0E6E702980068D0F8A400800798B9E7
:101D4000FFE702980068D0F8B00000F030003028BB
:101D500009D0FFE7FFE7029900200876FFE701209E
:101D60008DF80F00AFE026E002980068D0F8A400DC
:101D700000F00300012814D1FFE702980068D0F8B2
:101D8000B00000F4D870B0F5D87F09D0FFE7FFE7C6
:101D9000029900200876FFE701208DF80F0092E0FD
:101DA00008E0FFE7029900200876FFE701208DF8A0
:101DB0000F0088E0FFE702980168D1F8940020F056
:101DC0000100C1F8940040F6E441C4F202610868E1
:101DD00020F40040086002980168D1F8A80040F0A3
:101DE0000500C1F8A80000F0E1FF0190029800682A
:101DF000D0F8A4008007D8B9FFE7FFE70298006891
:101E0000D0F8B00010F0280F11D0FFE700F0CEFF9F
:101E10000199401A652809D3FFE7FFE702990020DE
:101E20000876FFE703208DF80F004CE0E6E72DE091
:101E300002980068D0F8A40000F0030001281BD12C
:101E4000FFE7FFE702980068D0F8B00010F4947F35
:101E500011D0FFE700F0AAFF0199401A652809D3C5
:101E6000FFE7FFE7029900200876FFE703208DF8DF
:101E70000F0028E0E6E708E0FFE702990020087677
:101E8000FFE701208DF80F001DE0FFE7FFE70020CE
:101E9000009002980168D1F8300420F00100C1F8E8
:101EA000300402980068D0F8300400F0010000907F
:101EB0000098FFE7FFE7029900200876FFE700207F
:101EC0008DF80F00FFE79DF80F0004B080BD000003
:101ED00080B584B00290FFE70298007E012804D10B
:101EE000FFE702208DF80F0066E1029901200876D5
:101EF000FFE7FFE702980068D0F8A400800790B9D8
:101F0000FFE702980068D0F8B00010F07E0F09D00B
:101F1000FFE7FFE7029900200876FFE701208DF830
:101F20000F0049E124E002980068D0F8A40000F016
:101F30000300012812D1FFE702980068D0F8B00032
:101F400010F4FF7F09D0FFE7FFE702990020087631
:101F5000FFE701208DF80F002EE108E0FFE702996E
:101F600000200876FFE701208DF80F0024E1FFE74D
:101F7000FFE70020009002980168D1F8300440F09B
:101F80000100C1F8300402980068D0F8300400F075
:101F9000010000900098FFE7012000F04BFB00F0EB
:101FA00005FF0190FFE702980068D0F80C04C00517
:101FB000002811D4FFE700F0F9FE0199401A6528C6
:101FC00009D3FFE7FFE7029900200876FFE7032027
:101FD0008DF80F00F0E0E6E702980168D1F8A8005C
:101FE00040F00A00C1F8A80000F0E0FE019002985D
:101FF0000068D0F8A4008007E0B9FFE7FFE7029887
:102000000068D0F8B00000F02800282811D0FFE7C1
:1020100000F0CCFE0199401A652809D3FFE7FFE7DD
:10202000029900200876FFE703208DF80F00C3E037
:10203000E5E72FE002980068D0F8A40000F0030064
:1020400001281DD1FFE7FFE702980068D0F8B00033
:1020500000F49470B0F5947F11D0FFE700F0A6FE75
:102060000199401A652809D3FFE7FFE7029900208C
:102070000876FFE703208DF80F009DE0E4E708E015
:10208000FFE7029900200876FFE701208DF80F0096
:1020900092E0FFE7012000F0CDFA029801680020ED
:1020A000C1F8A80040F6E441C4F20261086840F4B7
:1020B0000040086002980168D1F8940040F00100E7
:1020C000C1F8940002980068D0F83004C00748B9FD
:1020D000FFE7FFE7029900200876FFE701208DF86F
:1020E0000F0069E002980068D0F8A400800798B952
:1020F000FFE702980068D0F8B00000F03000302808
:1021000009D0FFE7FFE7029900200876FFE70120EA
:102110008DF80F0050E026E002980068D0F8A40087
:1021200000F00300012814D1FFE702980068D0F8FE
:10213000B00000F4D870B0F5D87F09D0FFE7FFE712
:10214000029900200876FFE701208DF80F0033E0A8
:1021500008E0FFE7029900200876FFE701208DF8EC
:102160000F0029E0FFE7012000F064FA00F01EFEF6
:102170000190FFE702980068D0F80C04C005002821
:1021800011D4FFE700F012FE0199401A652809D327
:10219000FFE7FFE7029900200876FFE703208DF8AC
:1021A0000F0009E0E6E7FFE7029900200876FFE765
:1021B00000208DF80F00FFE79DF80F0004B080BDF0
:1021C00080B586B004900391049820B9FFE7012000
:1021D0008DF81700ACE00498407E20B9FFE7049822
:1021E00000F066F9FFE70499032048760498016837
:1021F000D1F8080840F04000C1F80808022000F0BB
:1022000019FA04980168D1F830046FF39C00C1F802
:102210003004039908684A688968800040EAC2204F
:1022200040EA015204980168D1F830041043C1F823
:1022300030040498FEF70CFC04980399FEF7D2FCD6
:10224000FFE70020019004980168D1F8300440F0C5
:102250000100C1F8300404980068D0F8300400F0A0
:10226000010001900198FFE7012000F0E3F900F080
:102270009DFD0290FFE704980068D0F80C04C005AB
:1022800000280CD4FFE700F091FD0299401A652860
:1022900004D3FFE703208DF8170049E0EBE704982B
:1022A0000168D1F8A00040F00600C1F8A000049831
:1022B0000168D1F8940020F00300C1F8940004985C
:1022C00001684068D1F89420104340F00100C1F843
:1022D000940004980168D1F8A40020F00300C1F82C
:1022E000A40004980168C268D1F8A4001043C1F8A2
:1022F000A40004980168886820F0FF0088600498B2
:10230000016882688868104388600498016800202A
:10231000C1F8C40004990968C1F8C80004990862AA
:102320000499C861049A012151768DF81700FFE7DE
:102330009DF8170006B080BD80B58EB0DDF844C0B2
:10234000DDF840C00C900B910A920993119803900C
:10235000FFE70C98007E012804D1FFE702208DF8EA
:102360003700A0E00C9901200876FFE7FFE700F0B6
:102370001DFD0590FFE70C980068406FC00788B905
:10238000FFE700F013FD0599401A652809D3FFE720
:10239000FFE70C9900200876FFE703208DF837004F
:1023A00081E0E8E7109804900998022803D8FFE735
:1023B0000998029002E003200290FFE7029807903C
:1023C00000200690FFE706980799884210D2FFE7A1
:1023D0000398069A805C082101EBC20100FA01F122
:1023E000049808430490FFE7069801300690EAE756
:1023F00004980C990968086709980799401A089089
:102400000799039808440390FFE7089880B3FFE713
:102410000898032803D8FFE70898019002E00420F9
:102420000190FFE701980790002004900690FFE7D5
:102430000698079988420ED2FFE703980699405CF8
:10244000C90000FA01F1049808430490FFE70698D8
:1024500001300690ECE704980C9909680867079921
:102460000898401A08900799039808440390CCE70D
:102470000C9800680B990A9A099B03F1010C5FFA0A
:102480008CF31FFA8CFC4FEA1C2CEE46CEF800C0F1
:10249000FEF792FBFFE70C9900200876FFE700208B
:1024A0008DF83700FFE79DF837000EB080BD0000C3
:1024B00082B001900198006846F60041C4F2010123
:1024C000884210D1FFE7FFE740F6A440C4F2026063
:1024D000016841F000610160006800F00060009058
:1024E0000098FFE7FFE702B07047000083B001905B
:1024F0000091FFE70198007E012804D1FFE7022048
:102500008DF80B001BE0019901200876FFE7FFE73B
:1025100001980168086B20F003100863009840EAF6
:10252000004201980168086B10430863FFE70199B6
:1025300000200876FFE700208DF80B00FFE79DF8EC
:102540000B0003B07047000080B588B0DDF828C0EC
:102550000690059104920393FFE70698007E0128F8
:1025600004D1FFE702208DF81F001BE0069901202F
:102570000876FFE7FFE706980599049A039BDDF8C4
:1025800028C0EE46CEF800C0FEF760FB8DF80B00C9
:10259000FFE7069900200876FFE79DF80B008DF80D
:1025A0001F00FFE79DF81F0008B080BD84B00290B7
:1025B000FFE70298007E012804D1FFE702208DF892
:1025C0000F0032E0029901200876FFE7FFE7FFE7FE
:1025D0000020019002980168486840F001004860BE
:1025E00002980068406800F0010001900198FFE740
:1025F000FFE70020009002980168D1F8040440F041
:102600000800C1F8040402980068D0F8040400F03F
:10261000080000900098FFE7FFE702990020087685
:10262000FFE700208DF80F00FFE79DF80F0004B0D2
:102630007047000080B584B0039000F0B7FB0290B3
:10264000039801900198013048B1FFE740F2300053
:10265000C2F200000178019808440190FFE7FFE70B
:1026600000F0A4FB0299401A0199884201D2FFE7C9
:10267000F6E704B080BD000081B0ADF8020001B003
:102680007047000080B582B0ADF8060042F20C0041
:10269000C4F202600068BDF8061008420CD0FFE7E3
:1026A000BDF8060042F20C01C4F202610860BDF8F8
:1026B000060000F019F8FFE742F21000C4F20260D1
:1026C0000068BDF8061008420CD0FFE7BDF8060010
:1026D00042F21001C4F202610860BDF80600FFF783
:1026E000CBFFFFE702B080BD81B0ADF8020001B0C2
:1026F0007047000088B00590ADF8121000200190DE
:1027000005980090FFE7BDF812000199C840002825
:1027100045D0FFE7BDF81200019A01219140084021
:1027200003900398B8B3FFE705980021C4F2026153
:10273000884225D1FFE7BDF8120090FAA0F006907C
:10274000069820B9FFE720208DF81F0005E00698C5
:10275000B0FA80F08DF81F00FFE79DF81F00019090
:10276000019948F69C10C0F6020050F83110009113
:10277000019900EBC100416801208840029004E00B
:102780000199012088400290FFE7029A0099C86AE7
:102790001043C862FFE7019801300190B3E708B029
:1027A0007047000087B006900591002001900698C0
:1027B0000090FFE7059800680199C840002800F0E4
:1027C000DB81FFE705980068019A012191400840EC
:1027D0000390019802900398002800F0C981FFE758
:1027E00006980021C4F2026188425FD1FFE7069893
:1027F000006804900199012000FA01F104988843CF
:1028000004900598406800F00100019900FA01F178
:10281000049808430490049806990860019948F6C2
:102820009C10C0F6020050F831100091019900EBA5
:10283000C10040680290009802996FF0030202EA1A
:1028400051010844006A0490029800F007008100DA
:102850000F2000FA01F1049888430490029800F0D8
:10286000070081000B2000FA01F10498084304904E
:1028700004980099029B02EA5302114408620098EE
:102880000068049002984100032000FA01F10498C6
:102890008843049002984100022000FA01F1049854
:1028A0000843049004980099086065E00598406822
:1028B000022805D0FFE705984068122841D1FFE7BC
:1028C000069801996FF0030202EA51010844006A78
:1028D0000490019800F0070081000F2000FA01F138
:1028E0000498884304900598006900F00F0001994E
:1028F00001F00701890000FA01F1049808430490EF
:1029000004980699019B02EA530211440862009858
:102910000068049002984100032000FA01F1049835
:10292000884304900598406800F00300029949002C
:1029300000FA01F104980843049004980099086093
:1029400019E000980068049002984100032000FA02
:1029500001F10498884304900598406800F0030052
:102960000299490000FA01F1049808430490049880
:1029700000990860FFE7FFE70598406801280FD03D
:10298000FFE70598406802280AD0FFE705984068ED
:10299000112805D0FFE70598406812282FD1FFE7DE
:1029A00000988068049002984100032000FA01F129
:1029B0000498884304900598C0680299490000FA79
:1029C00001F10498084304900498009988600098E5
:1029D000406804900299012000FA01F104988843AC
:1029E000049005984068C0F30010029900FA01F1C4
:1029F000049808430490049800994860FFE70598FC
:102A00004068032818D0FFE70098C0680490029837
:102A10004100032000FA01F10498884304900598CE
:102A200080680299490000FA01F104980843049073
:102A300004980099C860FFE70598C079C00600288F
:102A400040F19580FFE7019820F0030042F2600218
:102A5000C4F2026280580490019800F00300C100A3
:102A60000F2000FA01F104988843049006984FF66D
:102A70000041CBF6FD510840800A019901F00301A5
:102A8000C90000FA01F104980843049004980199E0
:102A900021F00301885042F20000C4F20260006895
:102AA0000490039904988843049005988079C0069F
:102AB000002805D5FFE70399049808430490FFE731
:102AC000049842F20001C4F20261086042F204007C
:102AD000C4F202600068049003990498884304904B
:102AE000059880798006002805D5FFE703990498AA
:102AF00008430490FFE7049842F20401C4F2026123
:102B0000086042F28400C4F20260006804900399F5
:102B1000049888430490059880798007002805D59B
:102B2000FFE70399049808430490FFE7049842F2F2
:102B30008401C4F20261086042F28000C4F20260C3
:102B4000006804900399049888430490059880795C
:102B5000C00728B1FFE70399049808430490FFE7F2
:102B6000049842F28001C4F202610860FFE7FFE7C7
:102B70000198013001901DE607B0704782B00190C6
:102B8000ADF8021001980069BDF80210084204D0A7
:102B9000FFE701208DF8010003E000208DF801001F
:102BA000FFE79DF8010002B07047000083B002907B
:102BB000ADF80610029840690090009ABDF8060032
:102BC00002EA0001904340EA01400299886103B0A3
:102BD0007047000082B00190ADF802108DF801201E
:102BE0009DF8010028B1FFE7BDF802000199886156
:102BF00004E0BDF8020001998862FFE702B0704767
:102C000080B582B001900091009840F22001C2F29C
:102C10000001086043F26010C2F21500006822F063
:102C20009DFA02B080BD000080B582B0019001988D
:102C300000F002F802B080BD81B00090FFE7FEE72F
:102C400080B584B0039003980068D0F8F800029033
:102C50009DF80800C007A8B1FFE7FFE703980068E8
:102C6000F83000900099086820F001000860FFE744
:102C700003980068D0F84801019003980199FFF784
:102C8000BFFFFFE704B080BD80B582B00090009820
:102C900020B9FFE701208DF8070028E0009840796F
:102CA00038B9FFE7009800F027F800990020087174
:102CB000FFE7FFE700980079012804D1FFE7022031
:102CC0008DF8070013E0009901200871FFE7FFE786
:102CD000009900208860009901204871FFE7009961
:102CE00000200871FFE700208DF80700FFE79DF83E
:102CF000070002B080BD000080B588B0079007983B
:102D000000684FF20001C4F20201884233D1FFE7AC
:102D1000FFE740F68840C4F20260016841F4801188
:102D20000160006800F4801006900698FFE7FFE756
:102D300040F68840C4F20260016841F4001101606D
:102D4000006800F4001005900598FFE784200190CA
:102D5000052102910022039200F044FD019800F049
:102D600037FD0299039A8520049000F03BFD0498FA
:102D700000F02EFDFFE708B080BD000083B0029098
:102D8000019102980068019940580090009803B0A2
:102D90007047000083B00290019100920098029960
:102DA0000968019A8850002003B070474BF6442010
:102DB000C2F219000068704783B001900091019839
:102DC00090F8410020283BD1FFE7FFE7019890F8F9
:102DD0004000012804D1FFE702208DF80B0033E00A
:102DE0000199012081F84000FFE7FFE701992420C5
:102DF00081F8410001980168086820F0010008602E
:102E000001980168086820F480500860009A0198D1
:102E1000016808681043086001980168086840F07C
:102E2000010008600199202081F84100FFE7019925
:102E3000002081F84000FFE700208DF80B0003E040
:102E400002208DF80B00FFE79DF80B0003B07047E0
:102E500084B002900191029890F84100202840D15E
:102E6000FFE7FFE7029890F84000012804D1FFE750
:102E700002208DF80F0038E00299012081F840000F
:102E8000FFE7FFE70299242081F8410002980168DA
:102E9000086820F00100086002980068006800904F
:102EA000009820F4706000900199009840EA012099
:102EB0000090009802990968086002980168086803
:102EC00040F0010008600299202081F84100FFE7EE
:102ED0000299002081F84000FFE700208DF80F00E4
:102EE00003E002208DF80F00FFE79DF80F0004B00B
:102EF0007047000080B582B00090009820B9FFE7CD
:102F000001208DF8070073E0009890F8410040B967
:102F1000FFE70099002081F84000009800F06CF86D
:102F2000FFE70099242081F84100009801680868B3
:102F300020F00100086000980168406820F070608F
:102F4000086100980168886820F400408860009853
:102F5000C068012807D1FFE700980168806840F445
:102F60000040886006E000980168806840F40440F2
:102F70008860FFE70098C068022806D1FFE7009844
:102F800001684FF400604860FFE7009801684868F6
:102F900048F20002C0F20022104348600098016825
:102FA000C86820F40040C860009A1168106953692D
:102FB0009269184340EA0220C860009A1168D069FB
:102FC000126A1043086000980168086840F0010028
:102FD0000860009900204864009A202182F841107E
:102FE00000990863009981F842008DF80700FFE717
:102FF0009DF8070002B080BD80B5C0B03F900020B2
:103000003E903D903C903B903A9002A8E021FDF725
:10301000BAFA3F98006849F60001C4F200018842FC
:103020003DD1FFE7002003904FF0804102912190B5
:1030300002A800F033FD18B1FFE7FDF749FEFFE7F6
:10304000FFE740F68C40C4F20260016841F0800165
:103050000160006800F0800001900198FFE73020D7
:103060003A9012203B9000203C903D9002203E90F0
:1030700041F60040C4F202203AA9FFF793FBFFE7B4
:1030800040F6A040C4F20260016841F040010160D6
:10309000006800F0400000900098FFE7FFE740B0B4
:1030A00080BD000082B0019000208DF8030040F246
:1030B0000040C4F203000068C00720B1FFE7012010
:1030C0008DF803000AE040F20041C4F203010868F1
:1030D00020F00400019A10430860FFE79DF8030008
:1030E00002B0704740F20041C4F20301086840F0AA
:1030F000010008600020704740F23000C2F200007A
:1031000002784BF64421C2F21901086810440860A5
:103110007047000080B582B042F20001C4F20201A3
:10312000086840F480700860032000F073FB01F031
:103130007BFD40F62041C4F20261096801F00F02F4
:1031400048F68411C0F60201895CC84040F20001D3
:10315000C2F2000108600F2000F010F820B1FFE774
:1031600001208DF8070005E000F018FB00208DF825
:103170000700FFE79DF8070002B080BD80B58CB066
:103180000B90002004900390FFE740F69C40C4F2AF
:103190000260016841F010010160006800F0100059
:1031A00000900098FFE705A802A901F0DBFC01F000
:1031B00029FD049004984DF68361C4F21B31A0FBF5
:1031C00001014FF0FF3000EB9140039042F6987000
:1031D000C2F2150041F20001C4F20001016040F2A8
:1031E000E731C1600399416000210161816003F012
:1031F000C3F88DF807009DF8070010BBFFE742F603
:103200009870C2F2150003F029F98DF807009DF8B7
:103210000700A8B9FFE70B980F280CD8FFE70B9918
:103220003120002200F0DEFA0B9840F23401C2F2A5
:103230000001086003E001208DF80700FFE7FFE7C9
:10324000FFE7312000F0C4FA9DF807000CB080BD04
:10325000B0B586B0049003910292FFE7049890F80D
:10326000A000012804D1FFE702208DF8170049E0F3
:103270000499012081F8A000FFE7FFE704990220EC
:1032800081F8A100049A0298342100FB01210091E9
:103290000398019002684368D0F808C0D0F80CE0A9
:1032A00004694569CD648C64C1F844E0C1F840C04C
:1032B000CB638A638269C369D0F820C0D0F824E068
:1032C000846AC56A4D660C66C1F85CE0C1F858C0F6
:1032D0004B650A65006B886604980399029A04F0AE
:1032E00083FD0498016801204862049981F8A100D7
:1032F000FFE70499002081F8A000FFE700208DF887
:103300001700FFE79DF8170006B0B0BD81B0009030
:1033100001B0704780B584B0039003980068806B5B
:10332000029003980068406B01909DF808004007E8
:10333000002824D5FFE79DF80400400700281ED58B
:10334000FFE703980168486B20F004004863039886
:1033500001680420C863039AD2F8A41041F0010167
:10336000C2F8A410039981F8A100FFE70399002097
:1033700081F8A000FFE70398FFF7C8FFFFE79DF87B
:1033800008008007002825D5FFE79DF80400800786
:1033900000281FD5FFE703980168486B20F0020062
:1033A0004863039801680220C8630399D1F8A40018
:1033B00040F00200C1F8A4000399042081F8A100A4
:1033C000FFE70399002081F8A000FFE70398FFF7CB
:1033D0009DFFFFE79DF80800C007E0B1FFE79DF8FB
:1033E0000400C007B8B1FFE703980168486B20F0FC
:1033F00001004863039801680120C863039981F8BC
:10340000A100FFE70399002081F8A000FFE70398DF
:1034100000F0D6F8FFE79DF80800000700281ED549
:10342000FFE79DF804000007002818D5FFE7039880
:103430000168486B20F00800486303980168082081
:10344000C8630399012081F8A100FFE703990020D8
:1034500081F8A000FFE7039800F05EF9FFE704B0F1
:1034600080BD000080B584B00290029820B9FFE7CB
:1034700001208DF80F009EE0029890F8A10040B95D
:10348000FFE70299002081F8A000029800F0D6F82A
:10349000FFE70299022081F8A1000298016888697B
:1034A00020F070408861029A11685068D2F808C014
:1034B000D36840EA0C00184312690243886910433C
:1034C00088610298016888684FF60002CFF2000216
:1034D0001040886002984069000401900198029BA6
:1034E00019689B69034388681843886002980168DB
:1034F000C8681040C8600298C06900040190019833
:10350000029B19681B6A0343C8681843C860029885
:1035100001680869104008610298406A000401903F
:103520000198029B19689B6A034308691843086164
:10353000029801684869104048610298C06A000416
:1035400001900198029A1168126B02434869104376
:103550004861029890F8350000020190029890F8B6
:1035600036000004009002980168C86A00F07F40AD
:10357000C862009801990143029890F834200A43E8
:103580000168C86A1043C86202980168486B40F03D
:103590000600486302980168886940F0010088616C
:1035A00002990020C1F8A400029A012182F8A1101A
:1035B0008DF80F00FFE79DF80F0004B080BD0000FC
:1035C00080B582B001900DF023FE08B9FFE732E02C
:1035D00046F64000C4F20100006842F29871C2F25F
:1035E00015010988884216D1FFE7019842F29671C9
:1035F000C2F21501098800F053F80DF009FE0EF033
:10360000D5FD09F0D5F90DF003FE0EF045F80020C8
:1036100010F0D2FD0FE0019842F29871C2F215014C
:10362000098800F03DF80DF0F3FD0EF063F800207E
:1036300010F0FCFDFFE702B080BD000080B586B051
:1036400005900598006846F60001C4F20101884221
:1036500024D1FFE7FFE740F6A440C4F2026001680E
:1036600041F080610160006800F08060049004987F
:10367000FFE787200090052101910022029200F0CF
:10368000B1F8009800F0A4F80199029A88200390FC
:1036900000F0A8F8039800F09BF8FFE706B080BDA3
:1036A00083B001900091FFE7019890F8A0000128F5
:1036B00004D1FFE702208DF80B0029E001990120D9
:1036C00081F8A000FFE7FFE70199022081F8A1003F
:1036D00001980168486B20F001004863009846F6A5
:1036E0004001C4F20101086001980168486B40F094
:1036F000010048630199012081F8A100FFE70199C9
:10370000002081F8A000FFE700208DF80B00FFE704
:103710009DF80B0003B0704781B0009001B0704776
:1037200080B586B0049003910292FFE7049890F868
:10373000A000012804D1FFE702208DF8170029E03E
:103740000499012081F8A000FFE7FFE70499022017
:1037500081F8A100049A0298342100FB012038303E
:10376000019003980199486204980199029A04F023
:103770003BFB0498016801204862049981F8A1008C
:10378000FFE70499002081F8A000FFE700208DF8F2
:103790001700FFE79DF8170006B080BD80B582B026
:1037A000FFE740F69440C4F20260016841F0040172
:1037B0000160006800F0040001900198FFE76FF0DD
:1037C00001000F21002200F00DF802B080BD0000C2
:1037D00080B582B0ADF80600BDF906001EF00EFE01
:1037E00002B080BD80B586B0ADF81600049103929A
:1037F0001EF01CFE0290BDF916000190029804997B
:10380000039A05F09FFA014601981EF017FE06B0D4
:1038100080BD000080B582B0019001981EF052FE7C
:1038200002B080BD85B0039040F20000C2F20000FB
:10383000006844F6D351C1F26201A0FB0120800967
:10384000322200FB02F0A0FB0101012000EB9110ED
:103850000290039818BBFFE740F60801C4F202612A
:10386000086820F002000860FFE740F63C00C4F260
:1038700002600168002089070029019006D5FFE752
:103880000298002818BF01200190FFE70198C007A7
:1038900020B1FFE7029801380290E6E722E040F607
:1038A0000801C4F20261086840F002000860FFE706
:1038B00040F63C00C4F2026001680020890700293C
:1038C000009006D4FFE70298002818BF012000905E
:1038D000FFE70098C00720B1FFE702980138029087
:1038E000E6E7FFE7029820B9FFE703208DF8130011
:1038F00003E000208DF81300FFE79DF8130005B0EA
:103900007047000086B0049040F63C00C4F20260AC
:10391000006800F44030029002980499884212D165
:10392000FFE70498B0F1011F09D3FFE740F60C014F
:10393000C4F20261086840F480200860FFE70020BC
:103940008DF8170089E00498B0F1011F0DD3FFE74F
:1039500040F60C01C4F20261086820F4E0220498E9
:10396000104340F4802008600AE040F60C01C4F2E5
:103970000261086820F4E020049A10430860FFE721
:1039800040F20000C2F20000006844F6D351C1F2D8
:103990006201A0FB01208009322200FB02F0A0FBA3
:1039A0000101012000EB91100390FFE740F60C00AD
:1039B000C4F202600168002009040029019006D4C5
:1039C000FFE70398002818BF01200190FFE7019846
:1039D000C00720B1FFE7039801380390E6E703989A
:1039E00080B3FFE740F20000C2F20000006844F636
:1039F000D351C1F26201A0FB01208009322200FBF9
:103A000002F0A0FB0101012000EB91100390FFE701
:103A100040F63C00C4F2026001680020090400295D
:103A2000009006D4FFE70398002818BF01200090FB
:103A3000FFE70098C00720B1FFE703980138039023
:103A4000E6E7FFE7039820B9FFE703208DF81700AA
:103A500003E000208DF81700FFE79DF8170006B07F
:103A60007047000040F62C01C4F20261086840F083
:103A7000010008607047000040F61001C4F20261C6
:103A8000086840F0005008607047000040F63C00B5
:103A9000C4F20260006800F44030704780B590B016
:103AA0000F9000208DF833008DF832000F980068D9
:103AB000C00760B1FFE740F6E041C4F20261086868
:103AC00020F003000F9A126D10430860FFE70F9873
:103AD0000078800700280CD5FFE740F6E041C4F2EB
:103AE0000261086820F00C000F9A526D10430860C4
:103AF000FFE70F980078400700280CD5FFE740F655
:103B0000E041C4F20261086820F030000F9A926D23
:103B100010430860FFE70F980078000700280CD5D5
:103B2000FFE740F6E041C4F20261086820F0C000FF
:103B30000F9AD26D10430860FFE70F980078C00617
:103B400000280CD5FFE740F6E041C4F202610868A6
:103B500020F440700F9A126E10430860FFE70F9830
:103B6000C078800600280CD5FFE740F6E441C4F297
:103B70000261086820F440300F9A526E10430860CA
:103B8000FFE70F980078800600280CD5FFE740F685
:103B9000E841C4F20261086820F007000F9A926EB3
:103BA00010430860FFE70F980078400600280CD506
:103BB000FFE740F6E041C4F20261086820F440608B
:103BC0000F9AD26E10430860FFE70F980078000646
:103BD00000280CD5FFE740F6E041C4F20261086816
:103BE00020F440500F9A126F10430860FFE70F98BF
:103BF0004078C00760B1FFE740F6E841C4F20261D7
:103C0000086820F0C0000F9A526F10430860FFE769
:103C10000F988078400600280CD5FFE740F6E04179
:103C2000C4F20261086820F440400F9A926F10437A
:103C30000860FFE70F98C078400600280CD5FFE722
:103C400040F6E441C4F20261086820F040700F9A27
:103C5000D26F10430860FFE70F98C0780006002875
:103C60000DD5FFE740F6E441C4F20261086820F098
:103C700040600F9AD2F8802010430860FFE70F9849
:103C80004078800700280DD5FFE740F6E841C4F2F0
:103C90000261086820F440600F9AD2F88420104333
:103CA0000860FFE70F984078400700280DD5FFE730
:103CB00040F6E041C4F20261086820F440200F9A07
:103CC000D2F8882010430860FFE70F98407800077B
:103CD00000280DD5FFE740F6E841C4F2026108680C
:103CE00020F440700F9AD2F88C2010430860FFE750
:103CF0000F984078800600284AD5FFE70F98D0F843
:103D00009C000A90C8B1FFE70A9820281CD0FFE762
:103D10000A98402808D0FFE70A9860281BD0FFE7E0
:103D20000A98802818D018E040F62841C4F20261B1
:103D3000086840F48030086013E00F98083005F000
:103D400029FA8DF833000CE00F982C3005F0DCFADE
:103D50008DF8330005E004E003E001208DF8330026
:103D6000FFE79DF8330068B9FFE740F6E441C4F28D
:103D70000261086820F0E0000F9AD2F89C201043FE
:103D8000086004E09DF833008DF83200FFE7FFE79C
:103D90000F984078400600284ED5FFE70F98D0F8DE
:103DA000A0000990E8B1FFE70998B0F5807F1FD027
:103DB000FFE70998B0F5007F0AD0FFE70998B0F552
:103DC000407F1CD0FFE70998B0F5806F18D018E04D
:103DD00040F62841C4F20261086840F4803008606F
:103DE00013E00F98083005F0D5F98DF833000CE09A
:103DF0000F982C3005F088FA8DF8330005E004E0C8
:103E000003E001208DF83300FFE79DF8330068B927
:103E1000FFE740F6E441C4F20261086820F4E06084
:103E20000F9AD2F8A0201043086004E09DF83300F8
:103E30008DF83200FFE7FFE70F9840780006002872
:103E400042D5FFE70F98D0F8B400089000B3FFE721
:103E50000898B0F5805F1BD0FFE70898B0F5005FC9
:103E60000FD0FFE70898B0F5405F11D0FFE7089842
:103E7000B0F5804F0CD0FFE70898B0F5A04F07D001
:103E800007E00F98083005F085F98DF8330004E05D
:103E900003E001208DF83300FFE79DF8330068B997
:103EA000FFE740F6E841C4F20261086820F4E04010
:103EB0000F9AD2F8B4201043086004E09DF8330054
:103EC0008DF83200FFE7FFE70F988078C0070028E1
:103ED0003AD0FFE70F98D0F894000790042818D83C
:103EE0000799DFE801F013030C14150040F6284190
:103EF000C4F20261086840F4803008600DE00F9859
:103F00002C3005F001FA8DF8330006E005E004E0FE
:103F100003E001208DF83300FFE79DF8330068B916
:103F2000FFE740F6E441C4F20261086820F00700B0
:103F30000F9AD2F894201043086004E09DF83300F3
:103F40008DF83200FFE7FFE70F98807880070028A0
:103F500048D5FFE70F98D0F89800069020B3FFE708
:103F60000698B0F5803F0FD0FFE70698B0F5003F08
:103F700013D0FFE70698B0F5403F16D0FFE706984C
:103F8000B0F5802F12D012E040F62841C4F2026151
:103F9000086840F4803008600DE00F982C3005F080
:103FA000B3F98DF8330006E005E004E003E00120FA
:103FB0008DF83300FFE79DF8330068B9FFE740F65E
:103FC000E841C4F20261086820F4E0200F9AD2F8B8
:103FD00098201043086004E09DF833008DF832000B
:103FE000FFE7FFE70F9880784007002840F1B68090
:103FF000FFE700208DF8310040F69440C4F20260E3
:1040000000684007002813D4FFE7FFE740F694401C
:10401000C4F20260016841F004010160006800F030
:1040200004000B900B98FFE701208DF83100FFE7AB
:1040300040F62801C4F20261086840F001000860FF
:10404000FEF7B4FE0D90FFE740F62800C4F20260D0
:104050000068C00760B9FFE7FEF7A8FE0D99401A97
:10406000032804D3FFE703208DF8330000E0EBE7DB
:104070009DF8330000285DD1FFE740F6F040C4F220
:104080000260006800F440700E900E98D0B1FFE717
:104090000E980F99D1F8D010884213D0FFE740F660
:1040A000F041C4F20261086820F440700E90086884
:1040B00040F480300860086820F4803008600E9872
:1040C0000860FFE79DF83800C007E0B1FFE7FEF7A2
:1040D0006DFE0D90FFE740F6F040C4F2026000680C
:1040E000800700280ED4FFE7FEF760FE0D99401A06
:1040F00041F28931884204D3FFE703208DF8330071
:1041000000E0E8E7FFE79DF8330068B9FFE740F615
:10411000F041C4F20261086820F440700F9AD2F8AE
:10412000D0201043086004E09DF833008DF8320081
:10413000FFE704E09DF833008DF83200FFE79DF8BB
:104140003100012809D1FFE740F69441C4F2026131
:10415000086820F004000860FFE7FFE70F98807808
:10416000C006002842D5FFE70F98D0F8AC000590B4
:10417000F8B1FFE70598B0F1806F0AD0FFE7059826
:10418000B0F1006F0CD0FFE70598B0F1406F11D08F
:1041900011E00F98083004F0FDFF8DF833000EE0B9
:1041A00040F62841C4F20261086840F4003008601B
:1041B00005E004E003E001208DF83300FFE79DF8FF
:1041C000330068B9FFE740F6E041C4F202610868D5
:1041D00020F040600F9AD2F8AC201043086004E051
:1041E0009DF833008DF83200FFE7FFE70F988078E5
:1041F000000700282ED5FFE70F98D0F8A400049000
:1042000060B1FFE70498B0F5805F05D0FFE7049840
:10421000B0F5005F01D002E005E004E003E001201A
:104220008DF83300FFE79DF8330068B9FFE740F6EB
:10423000E441C4F20261086820F440500F9AD2F8B9
:10424000A4201043086004E09DF833008DF832008C
:10425000FFE7FFE70F984078C00600280DD5FFE77D
:1042600040F6E441C4F20261086820F400600F9A4D
:10427000D2F8A82010430860FFE70F9880788006E6
:1042800000281DD5FFE70F98D0F8B000B0F5804F9B
:1042900009D1FFE740F62841C4F20261086840F402
:1042A00080300860FFE740F6E441C4F2026108682C
:1042B00020F480400F9AD2F8B02010430860FFE746
:1042C0000F988078000600280DD5FFE740F6E04102
:1042D000C4F20261086820F440100F9AD2F8C4209A
:1042E00010430860FFE70F98C078C00768B1FFE788
:1042F00040F6E041C4F20261086820F440300F9AB1
:10430000D2F8C82010430860FFE70F98C0788007F4
:1043100000280DD5FFE740F6E841C4F202610868C5
:1043200020F018000F9AD2F8CC2010430860FFE765
:104330000F98C0784007002835D5FFE70F98D0F8D0
:10434000BC00B0F5001F09D1FFE740F62841C4F2D8
:104350000261086840F400300860FFE70F98D0F869
:10436000BC00B0F5401F07D1FFE70F98083004F0FC
:1043700011FF8DF83300FFE79DF8330068B9FFE7C0
:1043800040F6E441C4F20261086820F440100F9A3C
:10439000D2F8BC201043086004E09DF833008DF88B
:1043A0003200FFE7FFE70F980079C007002848D0E8
:1043B000FFE70F98D0F8C000039078B1FFE70398AB
:1043C000B0F5800F0BD0FFE70398B0F5000F0FD0CA
:1043D000FFE70398B0F5400F11D017E01AE040F660
:1043E0002841C4F20261086840F40030086011E01E
:1043F0000F98083004F0CEFE8DF833000AE00F98D5
:104400002C3004F081FF8DF8330003E001208DF89B
:104410003300FFE79DF8330068B9FFE740F6E44159
:10442000C4F20261086820F440000F9AD2F8C0205C
:104430001043086004E09DF833008DF83200FFE778
:10444000FFE70F98C078000700283CD5FFE70F98DA
:10445000D0F89000029050B1FFE70298B0F1807F51
:1044600006D0FFE70298B0F1007F0AD010E013E019
:1044700040F62841C4F20261086840F40030086048
:104480000AE00F98083004F085FE8DF8330003E051
:1044900001208DF83300FFE79DF8330068B9FFE78E
:1044A00040F6E041C4F20261086820F040700F9AC3
:1044B000D2F890201043086004E09DF833008DF896
:1044C0003200FFE7FFE70F98C078C00600280DD53F
:1044D000FFE740F6E841C4F20261086820F40040BA
:1044E0000F9AD2F8B82010430860FFE70F980079C0
:1044F0008007002834D5FFE70F98D0F8D40001904A
:1045000060B1FFE70198B0F5802F0ED1FFE70F985B
:10451000083004F03FFE8DF833000AE00F982C308D
:1045200004F0F2FE8DF8330003E001208DF8330033
:10453000FFE79DF8330068B9FFE740F6E441C4F2B5
:104540000261086820F480200F9AD2F8D42010432A
:10455000086004E09DF833008DF83200FFE7FFE7C4
:104560000F9800794007002823D5FFE70F98D0F86F
:10457000D80038B9FFE70F982C3004F0C5FE8DF84D
:104580003300FFE79DF8330068B9FFE740F6E441E8
:10459000C4F20261086820F400400F9AD2F8D820D3
:1045A0001043086004E09DF833008DF83200FFE707
:1045B000FFE70F980079000700283AD5FFE70F982A
:1045C000D0F8DC000090B0F1004F0DD0FFE700986C
:1045D000B0F1404F09D0FFE7009828B1FFE70098FD
:1045E000B0F1804F01D009E00CE040F62841C4F260
:1045F0000261086840F48030086003E001208DF813
:104600003300FFE79DF8330068B9FFE740F6E44167
:10461000C4F20261086820F040400F9AD2F8DC2012
:104620001043086004E09DF833008DF83200FFE786
:10463000FFE79DF8320010B080BD000080B588B063
:1046400006900591069820B9FFE701208DF81F001C
:1046500084E2059842F20001C4F20201096801F007
:104660000F01884216D9FFE742F20000C4F20200AF
:10467000016821F00F01059A11430160006800F004
:104680000F000599884204D0FFE701208DF81F0034
:1046900064E2FFE706980078C006002819D5FFE716
:1046A0000698406940F62441C4F20261096801F0AD
:1046B000700188420CD9FFE740F62441C4F2026140
:1046C000086820F07000069A526910430860FFE7FE
:1046D000FFE706980078000700281BD5FFE706983B
:1046E000006940F62041C4F20261096801F4E0610A
:1046F000B0EB111F0DD9FFE740F62041C4F2026173
:10470000086820F4E060069A126940EA0210086026
:10471000FFE7FFE7069800784007002819D5FFE774
:104720000698C06840F62041C4F20261096801F0B1
:10473000700188420CD9FFE740F62041C4F20261C3
:10474000086820F07000069AD26810430860FFE7FE
:10475000FFE7069800788007002819D5FFE706983C
:10476000806840F62041C4F20261096801F00F013F
:1047700088420CD9FFE740F62041C4F20261086884
:1047800020F00F00069A926810430860FFE7FFE7E9
:1047900006980078C007002800F01F81FFE700207E
:1047A0008DF80B000698406803285BD1FFE740F6C0
:1047B0009440C4F2026000684007002813D4FFE769
:1047C000FFE740F69440C4F20260016841F0040142
:1047D0000160006800F0040001900198FFE70120EB
:1047E0008DF80B00FFE7FEF7E1FA039040F60C00AE
:1047F000C4F2026000684003002817D5FFE7FFE716
:1048000040F60C00C4F202600068400400280CD49A
:10481000FFE7FEF7CBFA0399401A032804D3FFE71A
:1048200003208DF81F0099E1EAE7FFE79DF80B00F0
:10483000012809D1FFE740F69441C4F202610868FB
:1048400020F004000860FFE740F60040C4F2026078
:1048500000688001002804D4FFE701208DF81F00C4
:104860007CE134E00698406802280ED1FFE740F66C
:104870000040C4F2026000688003002804D4FFE70F
:1048800001208DF81F0069E120E00698406870B9AA
:10489000FFE740F60040C4F20260006840070028CD
:1048A00004D4FFE701208DF81F0057E10DE040F62A
:1048B0000040C4F2026000684005002804D4FFE70D
:1048C00001208DF81F0049E1FFE7FFE7FFE740F611
:1048D0001C41C4F20261086820F00300069A526885
:1048E00010430860FEF762FA0390069840680328B8
:1048F0001AD1FFE7FFE740F61C40C4F202600068EF
:1049000000F00C000C280ED0FFE7FEF74FFA0399D9
:10491000401A41F28931884204D3FFE703208DF821
:104920001F001BE1E7E757E00698406802281AD10C
:10493000FFE7FFE740F61C40C4F20260006800F0A9
:104940000C0008280ED0FFE7FEF730FA0399401A52
:1049500041F28931884204D3FFE703208DF81F001C
:10496000FCE0E7E737E006984068C8B9FFE7FFE7F3
:1049700040F61C40C4F20260006810F00C0F0ED02C
:10498000FFE7FEF713FA0399401A41F28931884292
:1049900004D3FFE703208DF81F00DFE0E8E719E00C
:1049A000FFE740F61C40C4F20260006800F00C0013
:1049B00004280ED0FFE7FEF7F9F90399401A41F2F7
:1049C0008931884204D3FFE703208DF81F00C5E03A
:1049D000E7E7FFE7FFE7FFE7FFE7069800788007D4
:1049E000002819D5FFE70698806840F62041C4F2F8
:1049F0000261096801F00F0188420CD2FFE740F61E
:104A00002041C4F20261086820F00F00069A926803
:104A100010430860FFE7FFE7059842F20001C4F287
:104A20000201096801F00F01884216D2FFE742F245
:104A30000000C4F20200016821F00F01059A114341
:104A40000160006800F00F000599884204D0FFE77C
:104A500001208DF81F0081E0FFE7069800784007ED
:104A6000002819D5FFE70698C06840F62041C4F237
:104A70000261096801F0700188420CD2FFE740F63C
:104A80002041C4F20261086820F07000069AD268E2
:104A900010430860FFE7FFE706980078000700284A
:104AA0001BD5FFE70698006940F62041C4F2026179
:104AB000096801F4E061B0EB111F0DD2FFE740F689
:104AC0002041C4F20261086820F4E060069A12698D
:104AD00040EA02100860FFE7FFE706980078C0068A
:104AE000002819D5FFE70698406940F62441C4F232
:104AF0000261096801F0700188420CD2FFE740F6BC
:104B00002441C4F20261086820F07000069A5269DC
:104B100010430860FFE7FFE700F086F840F6204109
:104B2000C4F20261096801F00F0248F68411C0F670
:104B30000201895CC84040F20001C2F20001086035
:104B400040F23400C2F200000068FEF717FB8DF857
:104B500013009DF813008DF81F00FFE79DF81F005C
:104B600008B080BD82B00190009101991F200860BB
:104B700040F61C40C4F20260006800F00300019996
:104B8000486040F62040C4F20260016801F00F0165
:104B9000019A9160016801F07001019AD16000688A
:104BA00000F4E06000090199086140F62440C4F275
:104BB0000260006800F070000199486142F2000054
:104BC000C4F20200006800F00F000099086002B013
:104BD0007047000080B500F027F840F62041C4F28D
:104BE0000261096801F00F0248F68411C0F6020163
:104BF000895C20FA01F140F20000C2F2000001607D
:104C0000006880BD80B5FFF7E5FF40F62041C4F2A3
:104C100002610968C1F3021248F69411C0F602015C
:104C2000895CC84080BD00008BB000200A900590D0
:104C300040F61C40C4F20260006800F00C000490D2
:104C400040F62840C4F20260006800F003000390C0
:104C5000049840B1FFE704980C282DD1FFE7039892
:104C6000012829D1FFE740F60840C4F2026000683D
:104C70000002002809D4FFE740F6F440C4F20260C5
:104C8000006880B2000B0A9007E040F60840C4F2CA
:104C900002600068000F0A90FFE70A9948F61C209E
:104CA000C0F6020050F821000A90049818B9FFE7F6
:104CB0000A980590FFE71CE040F61C40C4F2026031
:104CC000006800F00C00042806D1FFE742F2004023
:104CD000C0F2F40005900BE00498082806D1FFE725
:104CE00042F20040C0F2F400059000E0FFE7FFE769
:104CF000FFE704980C2840F0C180FFE740F6284009
:104D0000C4F20260016801F003010991016801F435
:104D10007062012101EB122107910068C0F30010BD
:104D20000690069840F63841C4F20261096889B2DB
:104D3000C90800FB01F000EE100AB8EE400A8DED44
:104D4000020A0798002800F09580FFE70998009074
:104D5000012850D0FFE70098022804D0FFE7009810
:104D6000032824D048E09DED070AB8EE401A9FEDD5
:104D7000450A80EE010A40F63440C4F20260006841
:104D80006FF35F2001EE100AB8EE411A9DED022A82
:104D90009FED3D3A82EE032A31EE021AB7EE002A69
:104DA00031EE021A20EE010A8DED010A4AE09DED76
:104DB000070AB8EE401A9FED330A80EE010A40F66A
:104DC0003440C4F2026000686FF35F2001EE100A05
:104DD000B8EE411A9DED022A9FED2B3A82EE032A8E
:104DE00031EE021AB7EE002A31EE021A20EE010A65
:104DF0008DED010A26E0FFE79DED0A0AB8EE400AB4
:104E00009DED071AB8EE411A80EE010A40F63440D3
:104E1000C4F2026000686FF35F2001EE100AB8EE82
:104E2000411A9DED022A9FED183A82EE032A31EED7
:104E3000021AB7EE002A31EE021A20EE010A8DEDB9
:104E4000010AFFE740F63440C4F20260006800F057
:104E5000FE41012000EB116008909DED010A9DEDDF
:104E6000081AB8EE411A80EE010ABCEEC00A8DEDB8
:104E7000050A02E000200590FFE7FFE705980BB068
:104E8000704700BF0024744B0000004610B592B07C
:104E9000109000208DF82F00109828B9FFE701200E
:104EA0008DF8470001F05EB840F61C40C4F2026085
:104EB000006800F00C000D9040F62840C4F202603B
:104EC000006800F003000C9010980078C0060028DD
:104ED00040F1CD81FFE70D9850B1FFE70D980C2808
:104EE00040F01E81FFE70C98012840F01981FFE790
:104EF0001098C06928B9FFE701208DF8470001F03C
:104F000031B81098406A019040F60840C4F202603F
:104F100000680002002809D5FFE740F60840C4F207
:104F20000260006800F07040009009E040F6F44034
:104F3000C4F20260006800F4704000040090FFE7D3
:104F40000198009988426AD9FFE70D9860B9FFE798
:104F50001098406A04F092FA28B1FFE701208DF81A
:104F6000470000F0FFBFFFE7FFE740F60841C4F24B
:104F70000261086840F400000860086820F0704092
:104F8000109A526A10430860FFE7FFE71098406AE2
:104F9000B0F1404F0CD3FFE740F60C41C4F2026180
:104FA000086820F01F00109A126A1043086034E06D
:104FB0001098406AB0F1FF3F0DDCFFE740F60C416E
:104FC000C4F20261086820F47870109A126A40EA0C
:104FD0004210086020E01098406AB0F1804F0DD375
:104FE000FFE740F60C41C4F20261086820F4F84083
:104FF000109A126A40EA822008600CE040F60C41E8
:10500000C4F20261086820F47820109A126A40EA1B
:10501000C2300860FFE7FFE7FFE7FFE769E0FFE76F
:1050200040F60841C4F20261086840F400000860DC
:10503000086820F07040109A526A10430860FFE739
:10504000FFE71098406AB0F1404F0CD3FFE740F6FD
:105050000C41C4F20261086820F01F00109A126A25
:105060001043086034E01098406AB0F1FF3F0DDC57
:10507000FFE740F60C41C4F20261086820F4787042
:10508000109A126A40EA4210086020E01098406AC4
:10509000B0F1804F0DD3FFE740F60C41C4F202613E
:1050A000086820F4F840109A126A40EA82200860EA
:1050B0000CE040F60C41C4F20261086820F478204C
:1050C000109A126A40EAC2300860FFE7FFE7FFE784
:1050D000FFE70D9860B9FFE71098406A04F0CEF939
:1050E00028B1FFE701208DF8470000F03BBFFFE744
:1050F000FFE7FFF76FFD40F23400C2F200000068E6
:10510000FEF73CF88DF83B009DF83B0030B1FFE71F
:105110009DF83B008DF8470000F024BFFFE7A5E0B5
:105120001098C06900287DD0FFE740F60041C4F226
:105130000261086840F001000860FDF737FE0F903B
:10514000FFE740F60040C4F2026000684007002814
:105150000DD4FFE7FDF72AFE0F99401A032805D367
:10516000FFE703208DF8470000F0FCBEE9E7FFE70A
:1051700040F60841C4F20261086840F4000008608B
:10518000086820F07040109A526A10430860FFE7E8
:10519000FFE71098406AB0F1404F0CD3FFE740F6AC
:1051A0000C41C4F20261086820F01F00109A126AD4
:1051B0001043086034E01098406AB0F1FF3F0DDC06
:1051C000FFE740F60C41C4F20261086820F47870F1
:1051D000109A126A40EA4210086020E01098406A73
:1051E000B0F1804F0DD3FFE740F60C41C4F20261ED
:1051F000086820F4F840109A126A40EA8220086099
:105200000CE040F60C41C4F20261086820F47820FA
:10521000109A126A40EAC2300860FFE7FFE7FFE732
:10522000FFE722E040F60041C4F20261086820F086
:1052300001000860FDF7BAFD0F90FFE740F600405F
:10524000C4F202600068400700280DD5FFE7FDF7B3
:10525000ADFD0F99401A032805D3FFE703208DF811
:10526000470000F07FBEE9E7FFE7FFE7FFE71098A0
:105270000078C007002800F0A580FFE70D980828F7
:1052800008D0FFE70D980C280ED1FFE70C980328F3
:105290000AD1FFE71098406828B9FFE701208DF890
:1052A000470000F05FBE8CE0FFE710984068B0F563
:1052B000803F09D1FFE740F60041C4F2026108686F
:1052C00040F48030086040E010984068B0F5A02FAE
:1052D00011D1FFE740F60041C4F20261086840F4D2
:1052E00080200860086820F480100860086840F496
:1052F0008030086028E010984068B0F5A81F11D1F0
:10530000FFE740F60041C4F20261086840F48020E3
:105310000860086840F480100860086840F4803035
:10532000086010E040F60041C4F20261086820F411
:1053300080300860086820F480200860086820F445
:1053400080100860FFE7FFE7FFE7FFE7109840687D
:10535000D8B1FFE7FDF72AFD0F90FFE740F60040C8
:10536000C4F202600068800300280DD4FFE7FDF757
:105370001DFD0F99401A652805D3FFE703208DF81E
:10538000470000F0EFBDE9E71AE0FDF70FFD0F90D1
:10539000FFE740F60040C4F2026000688003002886
:1053A0000DD5FFE7FDF702FD0F99401A652805D3DB
:1053B000FFE703208DF8470000F0D4BDE9E7FFE7E1
:1053C000FFE7FFE710980078800700287BD5FFE70C
:1053D0000D98042808D0FFE70D980C281BD1FFE793
:1053E0000C98022817D1FFE71098C06828B9FFE78A
:1053F00001208DF8470000F0B5BD40F61041C4F221
:105400000261086820F4F810109A126940EA02401C
:105410000860FFE756E01098C06878B3FFE740F6F1
:105420000041C4F20261086840F480700860FDF732
:10543000BDFC0F90FFE740F60040C4F20260006838
:10544000400500280DD4FFE7FDF7B0FC0F99401A86
:10545000032805D3FFE703208DF8470000F082BD45
:10546000E9E740F61041C4F20261086820F4F81040
:10547000109A126940EA0240086022E040F60041BA
:10548000C4F20261086820F480700860FDF78EFCA9
:105490000F90FFE740F60040C4F20260006840054C
:1054A00000280DD5FFE7FDF781FC0F99401A03286E
:1054B00005D3FFE703208DF8470000F053BDE9E76F
:1054C000FFE7FFE7FFE7109800780007002840F1AA
:1054D000F980FFE700208DF8230040F69440C4F2E5
:1054E000026000684007002813D4FFE7FFE740F69A
:1054F0009440C4F20260016841F004010160006858
:1055000000F0040007900798FFE701208DF82300C2
:10551000FFE740F62800C4F202600068C00710BB35
:10552000FFE740F62801C4F20261086840F001007C
:105530000860FDF73BFC0F90FFE740F62800C4F23F
:1055400002600068C00768B9FFE7FDF72FFC0F99FC
:10555000401A032805D3FFE703208DF8470000F029
:1055600001BDEAE7FFE710984069002878D0FFE71F
:1055700040F6F040C4F2026000680690109880691E
:10558000069901F08051884247D0FFE79DF81B0043
:10559000000700280CD5FFE7069800F08060B0F106
:1055A000806F05D0FFE701208DF8470000F0DABCDE
:1055B0009DF81B004007002823D5FFE740F6F04187
:1055C000C4F20261086820F0A0500860FDF7EEFB0D
:1055D0000F90FFE740F6F040C4F20260006800015F
:1055E00000280DD5FFE7FDF7E1FB0F99401A0628CB
:1055F00005D3FFE703208DF8470000F0B3BCE9E7CF
:10560000FFE740F6F041C4F20261086820F08050E4
:10561000109A926910430860FFE740F6F041C4F227
:105620000261086840F080600860FDF7BFFB0F90E2
:10563000FFE740F6F040C4F2026000680001002875
:105640000DD4FFE7FDF7B2FB0F99401A062805D3EA
:10565000FFE703208DF8470000F084BCE9E722E073
:1056600040F6F041C4F20261086820F0A0500860E2
:10567000FDF79CFB0F90FFE740F6F040C4F202609C
:105680000068000100280DD5FFE7FDF78FFB0F999B
:10569000401A062805D3FFE703208DF8470000F0E5
:1056A00061BCE9E7FFE79DF82300012809D1FFE786
:1056B00040F69441C4F20261086820F004000860DA
:1056C000FFE7FFE7109800784007002840F1378196
:1056D000FFE700208DF8170040F69440C4F2026006
:1056E00000684007002813D4FFE7FFE740F6944026
:1056F000C4F20260016841F004010160006800F03A
:10570000040004900498FFE701208DF81700FFE7DC
:1057100040F62800C4F202600068C00710BBFFE733
:1057200040F62801C4F20261086840F001000860F8
:10573000FDF73CFB0F90FFE740F62800C4F2026043
:105740000068C00768B9FFE7FDF730FB0F99401A02
:10575000032805D3FFE703208DF8470000F002BCC3
:10576000EAE7FFE71098007AC007E8B1FFE7109872
:10577000007A400700280DD5FFE740F6F041C4F25B
:105780000261086840F004000860086840F0010009
:10579000086008E040F6F041C4F20261086840F099
:1057A00001000860FFE70CE040F6F041C4F202613E
:1057B000086820F001000860086820F00400086014
:1057C000FFE710988068002864D0FFE7FDF7EEFA45
:1057D0000F90FFE740F6F040C4F2026000688007D7
:1057E00000280ED4FFE7FDF7E1FA0F99401A41F2C5
:1057F0008931884204D3FFE703208DF84700B1E3E5
:10580000E8E71098007A0006002821D5FFE740F667
:10581000F041C4F20261086840F080000860FFE7D0
:1058200040F6F040C4F202600068000500280ED483
:10583000FFE7FDF7BBFA0F99401A41F28931884220
:1058400004D3FFE703208DF847008BE3E8E720E06F
:1058500040F6F041C4F20261086820F08000086060
:10586000FFE740F6F040C4F202600068000500283F
:105870000ED5FFE7FDF79AFA0F99401A41F28931E8
:10588000884204D3FFE703208DF847006AE3E8E786
:10589000FFE745E0FDF78AFA0F90FFE740F6F0409A
:1058A000C4F202600068800700280ED5FFE7FDF70C
:1058B0007DFA0F99401A41F28931884204D3FFE7FB
:1058C00003208DF847004DE3E8E740F6F040C4F2CE
:1058D000026000680006002821D5FFE740F6F0418D
:1058E000C4F20261086820F080000860FFE740F61B
:1058F000F040C4F202600068000500280ED5FFE702
:10590000FDF754FA0F99401A41F28931884204D3C5
:10591000FFE703208DF8470024E3E8E7FFE7FFE710
:105920009DF81700012809D1FFE740F69441C4F221
:105930000261086820F004000860FFE7FFE71098A4
:1059400000788006002849D5FFE71098C06A10B398
:10595000FFE740F60041C4F20261086840F480505D
:105960000860FDF723FA0F90FFE740F60040C4F20D
:1059700002600068800400280CD4FFE7FDF716FAE7
:105980000F99401A032804D3FFE703208DF847003E
:10599000E8E2EAE721E040F60041C4F2026108686B
:1059A00020F480500860FDF701FA0F90FFE740F601
:1059B0000040C4F202600068800400280CD5FFE7B4
:1059C000FDF7F4F90F99401A032804D3FFE70320E9
:1059D0008DF84700C6E2EAE7FFE7FFE71098007896
:1059E0000006002849D5FFE71098006B10B3FFE7C9
:1059F00040F60041C4F20261086840F4804008604B
:105A0000FDF7D4F90F90FFE740F60040C4F20260C2
:105A10000068000400280CD4FFE7FDF7C7F90F99D0
:105A2000401A032804D3FFE703208DF8470099E2CA
:105A3000EAE721E040F60041C4F20261086820F480
:105A400080400860FDF7B2F90F90FFE740F6004094
:105A5000C4F202600068000400280CD5FFE7FDF7DF
:105A6000A5F90F99401A032804D3FFE703208DF806
:105A7000470077E2EAE7FFE7FFE710980078400683
:105A8000002840F1A580FFE71098406B00287CD0EB
:105A9000FFE7FFE740F60841C4F20261086840F4FE
:105AA00000000860086820F07060109A926A104345
:105AB0000860FFE7FFE71098406AB0F1404F0CD351
:105AC000FFE740F60C41C4F20261086820F01F00B5
:105AD000109A126A1043086034E01098406AB0F1DE
